{
  "_format": "hh3-artifact-1",
  "contractName": "RevenueRouter",
  "sourceName": "contracts/RevenueRouter.sol",
  "abi": [
    {
      "inputs": [
        {
          "internalType": "address payable",
          "name": "_creatorAddress",
          "type": "address"
        }
      ],
      "stateMutability": "nonpayable",
      "type": "constructor"
    },
    {
      "anonymous": false,
      "inputs": [
        {
          "indexed": true,
          "internalType": "address",
          "name": "customer",
          "type": "address"
        },
        {
          "indexed": false,
          "internalType": "uint256",
          "name": "amountPaid",
          "type": "uint256"
        },
        {
          "indexed": false,
          "internalType": "uint256",
          "name": "creatorCut",
          "type": "uint256"
        },
        {
          "indexed": false,
          "internalType": "uint256",
          "name": "investorCut",
          "type": "uint256"
        }
      ],
      "name": "PaymentReceived",
      "type": "event"
    },
    {
      "inputs": [],
      "name": "creatorAddress",
      "outputs": [
        {
          "internalType": "address payable",
          "name": "",
          "type": "address"
        }
      ],
      "stateMutability": "view",
      "type": "function"
    },
    {
      "inputs": [],
      "name": "routePayment",
      "outputs": [],
      "stateMutability": "payable",
      "type": "function"
    },
    {
      "inputs": [],
      "name": "totalDividendPool",
      "outputs": [
        {
          "internalType": "uint256",
          "name": "",
          "type": "uint256"
        }
      ],
      "stateMutability": "view",
      "type": "function"
    }
  ],
  "bytecode": "0x608060405234801561000f575f5ffd5b506040516106ba3803806106ba833981810160405281019061003191906100d4565b805f5f6101000a81548173ffffffffffffffffffffffffffffffffffffffff021916908373ffffffffffffffffffffffffffffffffffffffff160217905550506100ff565b5f5ffd5b5f73ffffffffffffffffffffffffffffffffffffffff82169050919050565b5f6100a38261007a565b9050919050565b6100b381610099565b81146100bd575f5ffd5b50565b5f815190506100ce816100aa565b92915050565b5f602082840312156100e9576100e8610076565b5b5f6100f6848285016100c0565b91505092915050565b6105ae8061010c5f395ff3fe608060405260043610610033575f3560e01c80637b5177e614610037578063b54ec8e614610041578063e927fc5c1461006b575b5f5ffd5b61003f610095565b005b34801561004c575f5ffd5b5061005561023e565b6040516100629190610280565b60405180910390f35b348015610076575f5ffd5b5061007f610244565b60405161008c91906102d8565b60405180910390f35b5f34116100d7576040517f08c379a00000000000000000000000000000000000000000000000000000000081526004016100ce9061034b565b60405180910390fd5b5f3490505f60646050836100eb9190610396565b6100f59190610404565b90505f81836101049190610434565b90508060015f8282546101179190610467565b925050819055505f5f5f9054906101000a900473ffffffffffffffffffffffffffffffffffffffff1673ffffffffffffffffffffffffffffffffffffffff1683604051610163906104c7565b5f6040518083038185875af1925050503d805f811461019d576040519150601f19603f3d011682016040523d82523d5f602084013e6101a2565b606091505b50509050806101e6576040517f08c379a00000000000000000000000000000000000000000000000000000000081526004016101dd90610525565b60405180910390fd5b3373ffffffffffffffffffffffffffffffffffffffff167f750e6bbedd4312ada35caa75e07fc0b85f1a6fc9c675e6962aef84691871109785858560405161023093929190610543565b60405180910390a250505050565b60015481565b5f5f9054906101000a900473ffffffffffffffffffffffffffffffffffffffff1681565b5f819050919050565b61027a81610268565b82525050565b5f6020820190506102935f830184610271565b92915050565b5f73ffffffffffffffffffffffffffffffffffffffff82169050919050565b5f6102c282610299565b9050919050565b6102d2816102b8565b82525050565b5f6020820190506102eb5f8301846102c9565b92915050565b5f82825260208201905092915050565b7f596f75206d7573742073656e64204554482f5553444320746f207061792e00005f82015250565b5f610335601e836102f1565b915061034082610301565b602082019050919050565b5f6020820190508181035f83015261036281610329565b9050919050565b7f4e487b71000000000000000000000000000000000000000000000000000000005f52601160045260245ffd5b5f6103a082610268565b91506103ab83610268565b92508282026103b981610268565b915082820484148315176103d0576103cf610369565b5b5092915050565b7f4e487b71000000000000000000000000000000000000000000000000000000005f52601260045260245ffd5b5f61040e82610268565b915061041983610268565b925082610429576104286103d7565b5b828204905092915050565b5f61043e82610268565b915061044983610268565b925082820390508181111561046157610460610369565b5b92915050565b5f61047182610268565b915061047c83610268565b925082820190508082111561049457610493610369565b5b92915050565b5f81905092915050565b50565b5f6104b25f8361049a565b91506104bd826104a4565b5f82019050919050565b5f6104d1826104a7565b9150819050919050565b7f5472616e7366657220746f2063726561746f72206661696c65642100000000005f82015250565b5f61050f601b836102f1565b915061051a826104db565b602082019050919050565b5f6020820190508181035f83015261053c81610503565b9050919050565b5f6060820190506105565f830186610271565b6105636020830185610271565b6105706040830184610271565b94935050505056fea2646970667358221220b0c7f02d700570a711fd374bcd59ab344ce9fe790e6d89bc61a74f3cb5b8b42a64736f6c634300081c0033",
  "linkReferences": {},
  "deployedLinkReferences": {},
  "immutableReferences": {},
  "inputSourceName": "project/contracts/RevenueRouter.sol",
  "buildInfoId": "solc-0_8_28-74a41891595ddbc53978627c291276bc28eb829e"
}